{
  "_format": "hh-sol-artifact-1",
  "contractName": "Tuned",
  "sourceName": "contracts/Tuned.sol",
  "abi": [
    {
      "inputs": [
        {
          "internalType": "address",
          "name": "account",
          "type": "address"
        },
        {
          "internalType": "address",
          "name": "minter_",
          "type": "address"
        },
        {
          "internalType": "uint256",
          "name": "mintingAllowedAfter_",
          "type": "uint256"
        }
      ],
      "stateMutability": "nonpayable",
      "type": "constructor"
    },
    {
      "anonymous": false,
      "inputs": [
        {
          "indexed": true,
          "internalType": "address",
          "name": "owner",
          "type": "address"
        },
        {
          "indexed": true,
          "internalType": "address",
          "name": "spender",
          "type": "address"
        },
        {
          "indexed": false,
          "internalType": "uint256",
          "name": "amount",
          "type": "uint256"
        }
      ],
      "name": "Approval",
      "type": "event"
    },
    {
      "anonymous": false,
      "inputs": [
        {
          "indexed": true,
          "internalType": "address",
          "name": "delegator",
          "type": "address"
        },
        {
          "indexed": true,
          "internalType": "address",
          "name": "fromDelegate",
          "type": "address"
        },
        {
          "indexed": true,
          "internalType": "address",
          "name": "toDelegate",
          "type": "address"
        }
      ],
      "name": "DelegateChanged",
      "type": "event"
    },
    {
      "anonymous": false,
      "inputs": [
        {
          "indexed": true,
          "internalType": "address",
          "name": "delegate",
          "type": "address"
        },
        {
          "indexed": false,
          "internalType": "uint256",
          "name": "previousBalance",
          "type": "uint256"
        },
        {
          "indexed": false,
          "internalType": "uint256",
          "name": "newBalance",
          "type": "uint256"
        }
      ],
      "name": "DelegateVotesChanged",
      "type": "event"
    },
    {
      "anonymous": false,
      "inputs": [
        {
          "indexed": false,
          "internalType": "address",
          "name": "minter",
          "type": "address"
        },
        {
          "indexed": false,
          "internalType": "address",
          "name": "newMinter",
          "type": "address"
        }
      ],
      "name": "MinterChanged",
      "type": "event"
    },
    {
      "anonymous": false,
      "inputs": [
        {
          "indexed": true,
          "internalType": "address",
          "name": "from",
          "type": "address"
        },
        {
          "indexed": true,
          "internalType": "address",
          "name": "to",
          "type": "address"
        },
        {
          "indexed": false,
          "internalType": "uint256",
          "name": "amount",
          "type": "uint256"
        }
      ],
      "name": "Transfer",
      "type": "event"
    },
    {
      "inputs": [],
      "name": "DELEGATION_TYPEHASH",
      "outputs": [
        {
          "internalType": "bytes32",
          "name": "",
          "type": "bytes32"
        }
      ],
      "stateMutability": "view",
      "type": "function"
    },
    {
      "inputs": [],
      "name": "DOMAIN_TYPEHASH",
      "outputs": [
        {
          "internalType": "bytes32",
          "name": "",
          "type": "bytes32"
        }
      ],
      "stateMutability": "view",
      "type": "function"
    },
    {
      "inputs": [],
      "name": "PERMIT_TYPEHASH",
      "outputs": [
        {
          "internalType": "bytes32",
          "name": "",
          "type": "bytes32"
        }
      ],
      "stateMutability": "view",
      "type": "function"
    },
    {
      "inputs": [
        {
          "internalType": "address",
          "name": "account",
          "type": "address"
        },
        {
          "internalType": "address",
          "name": "spender",
          "type": "address"
        }
      ],
      "name": "allowance",
      "outputs": [
        {
          "internalType": "uint256",
          "name": "",
          "type": "uint256"
        }
      ],
      "stateMutability": "view",
      "type": "function"
    },
    {
      "inputs": [
        {
          "internalType": "address",
          "name": "spender",
          "type": "address"
        },
        {
          "internalType": "uint256",
          "name": "rawAmount",
          "type": "uint256"
        }
      ],
      "name": "approve",
      "outputs": [
        {
          "internalType": "bool",
          "name": "",
          "type": "bool"
        }
      ],
      "stateMutability": "nonpayable",
      "type": "function"
    },
    {
      "inputs": [
        {
          "internalType": "address",
          "name": "account",
          "type": "address"
        }
      ],
      "name": "balanceOf",
      "outputs": [
        {
          "internalType": "uint256",
          "name": "",
          "type": "uint256"
        }
      ],
      "stateMutability": "view",
      "type": "function"
    },
    {
      "inputs": [
        {
          "internalType": "address",
          "name": "",
          "type": "address"
        },
        {
          "internalType": "uint32",
          "name": "",
          "type": "uint32"
        }
      ],
      "name": "checkpoints",
      "outputs": [
        {
          "internalType": "uint32",
          "name": "fromBlock",
          "type": "uint32"
        },
        {
          "internalType": "uint96",
          "name": "votes",
          "type": "uint96"
        }
      ],
      "stateMutability": "view",
      "type": "function"
    },
    {
      "inputs": [],
      "name": "decimals",
      "outputs": [
        {
          "internalType": "uint8",
          "name": "",
          "type": "uint8"
        }
      ],
      "stateMutability": "view",
      "type": "function"
    },
    {
      "inputs": [
        {
          "internalType": "address",
          "name": "delegatee",
          "type": "address"
        }
      ],
      "name": "delegate",
      "outputs": [],
      "stateMutability": "nonpayable",
      "type": "function"
    },
    {
      "inputs": [
        {
          "internalType": "address",
          "name": "delegatee",
          "type": "address"
        },
        {
          "internalType": "uint256",
          "name": "nonce",
          "type": "uint256"
        },
        {
          "internalType": "uint256",
          "name": "expiry",
          "type": "uint256"
        },
        {
          "internalType": "uint8",
          "name": "v",
          "type": "uint8"
        },
        {
          "internalType": "bytes32",
          "name": "r",
          "type": "bytes32"
        },
        {
          "internalType": "bytes32",
          "name": "s",
          "type": "bytes32"
        }
      ],
      "name": "delegateBySig",
      "outputs": [],
      "stateMutability": "nonpayable",
      "type": "function"
    },
    {
      "inputs": [
        {
          "internalType": "address",
          "name": "",
          "type": "address"
        }
      ],
      "name": "delegates",
      "outputs": [
        {
          "internalType": "address",
          "name": "",
          "type": "address"
        }
      ],
      "stateMutability": "view",
      "type": "function"
    },
    {
      "inputs": [
        {
          "internalType": "address",
          "name": "account",
          "type": "address"
        }
      ],
      "name": "getCurrentVotes",
      "outputs": [
        {
          "internalType": "uint96",
          "name": "",
          "type": "uint96"
        }
      ],
      "stateMutability": "view",
      "type": "function"
    },
    {
      "inputs": [
        {
          "internalType": "address",
          "name": "account",
          "type": "address"
        },
        {
          "internalType": "uint256",
          "name": "blockNumber",
          "type": "uint256"
        }
      ],
      "name": "getPriorVotes",
      "outputs": [
        {
          "internalType": "uint96",
          "name": "",
          "type": "uint96"
        }
      ],
      "stateMutability": "view",
      "type": "function"
    },
    {
      "inputs": [],
      "name": "minimumTimeBetweenMints",
      "outputs": [
        {
          "internalType": "uint32",
          "name": "",
          "type": "uint32"
        }
      ],
      "stateMutability": "view",
      "type": "function"
    },
    {
      "inputs": [
        {
          "internalType": "address",
          "name": "dst",
          "type": "address"
        },
        {
          "internalType": "uint256",
          "name": "rawAmount",
          "type": "uint256"
        }
      ],
      "name": "mint",
      "outputs": [],
      "stateMutability": "nonpayable",
      "type": "function"
    },
    {
      "inputs": [],
      "name": "mintCap",
      "outputs": [
        {
          "internalType": "uint8",
          "name": "",
          "type": "uint8"
        }
      ],
      "stateMutability": "view",
      "type": "function"
    },
    {
      "inputs": [],
      "name": "minter",
      "outputs": [
        {
          "internalType": "address",
          "name": "",
          "type": "address"
        }
      ],
      "stateMutability": "view",
      "type": "function"
    },
    {
      "inputs": [],
      "name": "mintingAllowedAfter",
      "outputs": [
        {
          "internalType": "uint256",
          "name": "",
          "type": "uint256"
        }
      ],
      "stateMutability": "view",
      "type": "function"
    },
    {
      "inputs": [],
      "name": "name",
      "outputs": [
        {
          "internalType": "string",
          "name": "",
          "type": "string"
        }
      ],
      "stateMutability": "view",
      "type": "function"
    },
    {
      "inputs": [
        {
          "internalType": "address",
          "name": "",
          "type": "address"
        }
      ],
      "name": "nonces",
      "outputs": [
        {
          "internalType": "uint256",
          "name": "",
          "type": "uint256"
        }
      ],
      "stateMutability": "view",
      "type": "function"
    },
    {
      "inputs": [
        {
          "internalType": "address",
          "name": "",
          "type": "address"
        }
      ],
      "name": "numCheckpoints",
      "outputs": [
        {
          "internalType": "uint32",
          "name": "",
          "type": "uint32"
        }
      ],
      "stateMutability": "view",
      "type": "function"
    },
    {
      "inputs": [
        {
          "internalType": "address",
          "name": "owner",
          "type": "address"
        },
        {
          "internalType": "address",
          "name": "spender",
          "type": "address"
        },
        {
          "internalType": "uint256",
          "name": "rawAmount",
          "type": "uint256"
        },
        {
          "internalType": "uint256",
          "name": "deadline",
          "type": "uint256"
        },
        {
          "internalType": "uint8",
          "name": "v",
          "type": "uint8"
        },
        {
          "internalType": "bytes32",
          "name": "r",
          "type": "bytes32"
        },
        {
          "internalType": "bytes32",
          "name": "s",
          "type": "bytes32"
        }
      ],
      "name": "permit",
      "outputs": [],
      "stateMutability": "nonpayable",
      "type": "function"
    },
    {
      "inputs": [
        {
          "internalType": "address",
          "name": "minter_",
          "type": "address"
        }
      ],
      "name": "setMinter",
      "outputs": [],
      "stateMutability": "nonpayable",
      "type": "function"
    },
    {
      "inputs": [],
      "name": "symbol",
      "outputs": [
        {
          "internalType": "string",
          "name": "",
          "type": "string"
        }
      ],
      "stateMutability": "view",
      "type": "function"
    },
    {
      "inputs": [],
      "name": "totalSupply",
      "outputs": [
        {
          "internalType": "uint256",
          "name": "",
          "type": "uint256"
        }
      ],
      "stateMutability": "view",
      "type": "function"
    },
    {
      "inputs": [
        {
          "internalType": "address",
          "name": "dst",
          "type": "address"
        },
        {
          "internalType": "uint256",
          "name": "rawAmount",
          "type": "uint256"
        }
      ],
      "name": "transfer",
      "outputs": [
        {
          "internalType": "bool",
          "name": "",
          "type": "bool"
        }
      ],
      "stateMutability": "nonpayable",
      "type": "function"
    },
    {
      "inputs": [
        {
          "internalType": "address",
          "name": "src",
          "type": "address"
        },
        {
          "internalType": "address",
          "name": "dst",
          "type": "address"
        },
        {
          "internalType": "uint256",
          "name": "rawAmount",
          "type": "uint256"
        }
      ],
      "name": "transferFrom",
      "outputs": [
        {
          "internalType": "bool",
          "name": "",
          "type": "bool"
        }
      ],
      "stateMutability": "nonpayable",
      "type": "function"
    }
  ],
  "bytecode": "0x60806040526a52b7d2dcc80cd2e40000006000553480156200002057600080fd5b506040516200439b3803806200439b833981810160405281019062000046919062000243565b428110156200008c576040517f08c379a0000000000000000000000000000000000000000000000000000000008152600401620000839062000350565b60405180910390fd5b600054600460008573ffffffffffffffffffffffffffffffffffffffff1673ffffffffffffffffffffffffffffffffffffffff16815260200190815260200160002060006101000a8154816bffffffffffffffffffffffff02191690836bffffffffffffffffffffffff1602179055508273ffffffffffffffffffffffffffffffffffffffff16600073ffffffffffffffffffffffffffffffffffffffff167fddf252ad1be2c89b69c2b068fc378daa952ba7f163c4a11628f55a4df523b3ef6000546040516200015e919062000372565b60405180910390a381600160006101000a81548173ffffffffffffffffffffffffffffffffffffffff021916908373ffffffffffffffffffffffffffffffffffffffff1602179055507f3b0007eb941cf645526cbb3a4fdaecda9d28ce4843167d9263b536a1f1edc0f66000600160009054906101000a900473ffffffffffffffffffffffffffffffffffffffff16604051620001fd92919062000323565b60405180910390a18060028190555050505062000412565b6000815190506200022681620003de565b92915050565b6000815190506200023d81620003f8565b92915050565b6000806000606084860312156200025957600080fd5b6000620002698682870162000215565b93505060206200027c8682870162000215565b92505060406200028f868287016200022c565b9150509250925092565b620002a481620003a0565b82525050565b6000620002b96039836200038f565b91507f546e643a3a636f6e7374727563746f723a206d696e74696e672063616e206f6e60008301527f6c7920626567696e206166746572206465706c6f796d656e74000000000000006020830152604082019050919050565b6200031d81620003d4565b82525050565b60006040820190506200033a600083018562000299565b62000349602083018462000299565b9392505050565b600060208201905081810360008301526200036b81620002aa565b9050919050565b600060208201905062000389600083018462000312565b92915050565b600082825260208201905092915050565b6000620003ad82620003b4565b9050919050565b600073ffffffffffffffffffffffffffffffffffffffff82169050919050565b6000819050919050565b620003e981620003a0565b8114620003f557600080fd5b50565b6200040381620003d4565b81146200040f57600080fd5b50565b613f7980620004226000396000f3fe608060405234801561001057600080fd5b50600436106101a95760003560e01c80636fcfff45116100f9578063b4b5ea5711610097578063dd62ed3e11610071578063dd62ed3e146104fa578063e7a324dc1461052a578063f1127ed814610548578063fca3b5aa14610579576101a9565b8063b4b5ea5714610492578063c3cda520146104c2578063d505accf146104de576101a9565b8063782d6fe1116100d3578063782d6fe1146103e45780637ecebe001461041457806395d89b4114610444578063a9059cbb14610462576101a9565b80636fcfff451461036657806370a082311461039657806376c71ca1146103c6576101a9565b806330adf81f1161016657806340c10f191161014057806340c10f19146102e0578063587cde1e146102fc5780635c11d62f1461032c5780635c19a95c1461034a576101a9565b806330adf81f1461028657806330b36cef146102a4578063313ce567146102c2576101a9565b806306fdde03146101ae57806307546172146101cc578063095ea7b3146101ea57806318160ddd1461021a57806320606b701461023857806323b872dd14610256575b600080fd5b6101b6610595565b6040516101c39190613673565b60405180910390f35b6101d46105ce565b6040516101e191906134c9565b60405180910390f35b61020460048036038101906101ff9190612d8d565b6105f4565b604051610211919061350d565b60405180910390f35b610222610773565b60405161022f9190613855565b60405180910390f35b610240610779565b60405161024d9190613528565b60405180910390f35b610270600480360381019061026b9190612ca0565b61079d565b60405161027d919061350d565b60405180910390f35b61028e610a11565b60405161029b9190613528565b60405180910390f35b6102ac610a35565b6040516102b99190613855565b60405180910390f35b6102ca610a3b565b6040516102d791906138b4565b60405180910390f35b6102fa60048036038101906102f59190612d8d565b610a40565b005b61031660048036038101906103119190612c3b565b610e43565b60405161032391906134c9565b60405180910390f35b610334610e76565b6040516103419190613870565b60405180910390f35b610364600480360381019061035f9190612c3b565b610e7e565b005b610380600480360381019061037b9190612c3b565b610e8b565b60405161038d9190613870565b60405180910390f35b6103b060048036038101906103ab9190612c3b565b610eae565b6040516103bd9190613855565b60405180910390f35b6103ce610f1d565b6040516103db91906138b4565b60405180910390f35b6103fe60048036038101906103f99190612d8d565b610f22565b60405161040b91906138ea565b60405180910390f35b61042e60048036038101906104299190612c3b565b61135d565b60405161043b9190613855565b60405180910390f35b61044c611375565b6040516104599190613673565b60405180910390f35b61047c60048036038101906104779190612d8d565b6113ae565b604051610489919061350d565b60405180910390f35b6104ac60048036038101906104a79190612c3b565b6113eb565b6040516104b991906138ea565b60405180910390f35b6104dc60048036038101906104d79190612dc9565b6114e2565b005b6104f860048036038101906104f39190612cef565b6117a5565b005b610514600480360381019061050f9190612c64565b611c03565b6040516105219190613855565b60405180910390f35b610532611cb0565b60405161053f9190613528565b60405180910390f35b610562600480360381019061055d9190612e52565b611cd4565b60405161057092919061388b565b60405180910390f35b610593600480360381019061058e9190612c3b565b611d2d565b005b6040518060400160405280600581526020017f54756e656400000000000000000000000000000000000000000000000000000081525081565b600160009054906101000a900473ffffffffffffffffffffffffffffffffffffffff1681565b6000807fffffffffffffffffffffffffffffffffffffffffffffffffffffffffffffffff831415610633576bffffffffffffffffffffffff9050610658565b61065583604051806060016040528060248152602001613df260249139611e5c565b90505b80600360003373ffffffffffffffffffffffffffffffffffffffff1673ffffffffffffffffffffffffffffffffffffffff16815260200190815260200160002060008673ffffffffffffffffffffffffffffffffffffffff1673ffffffffffffffffffffffffffffffffffffffff16815260200190815260200160002060006101000a8154816bffffffffffffffffffffffff02191690836bffffffffffffffffffffffff1602179055508373ffffffffffffffffffffffffffffffffffffffff163373ffffffffffffffffffffffffffffffffffffffff167f8c5be1e5ebec7d5bd14f71427d1e84f3dd0314c0f7b2291e5b200ac8c7c3b9258360405161076091906138cf565b60405180910390a3600191505092915050565b60005481565b7f8cad95687ba82c2ce50e74f7b754645e5117c3a5bec8151c0726d5857980a86681565b6000803390506000600360008773ffffffffffffffffffffffffffffffffffffffff1673ffffffffffffffffffffffffffffffffffffffff16815260200190815260200160002060008373ffffffffffffffffffffffffffffffffffffffff1673ffffffffffffffffffffffffffffffffffffffff16815260200190815260200160002060009054906101000a90046bffffffffffffffffffffffff169050600061086085604051806060016040528060248152602001613df260249139611e5c565b90508673ffffffffffffffffffffffffffffffffffffffff168373ffffffffffffffffffffffffffffffffffffffff16141580156108ba57506bffffffffffffffffffffffff8016826bffffffffffffffffffffffff1614155b156109f85760006108e483836040518060600160405280603c8152602001613d91603c9139611eba565b905080600360008a73ffffffffffffffffffffffffffffffffffffffff1673ffffffffffffffffffffffffffffffffffffffff16815260200190815260200160002060008673ffffffffffffffffffffffffffffffffffffffff1673ffffffffffffffffffffffffffffffffffffffff16815260200190815260200160002060006101000a8154816bffffffffffffffffffffffff02191690836bffffffffffffffffffffffff1602179055508373ffffffffffffffffffffffffffffffffffffffff168873ffffffffffffffffffffffffffffffffffffffff167f8c5be1e5ebec7d5bd14f71427d1e84f3dd0314c0f7b2291e5b200ac8c7c3b925836040516109ee91906138cf565b60405180910390a3505b610a03878783611f34565b600193505050509392505050565b7f6e71edae12b1b97f4d1f60370fef10105fa2faae0126114a169c64845d6126c981565b60025481565b601281565b600160009054906101000a900473ffffffffffffffffffffffffffffffffffffffff1673ffffffffffffffffffffffffffffffffffffffff163373ffffffffffffffffffffffffffffffffffffffff1614610ad0576040517f08c379a0000000000000000000000000000000000000000000000000000000008152600401610ac790613795565b60405180910390fd5b600254421015610b15576040517f08c379a0000000000000000000000000000000000000000000000000000000008152600401610b0c906137b5565b60405180910390fd5b600073ffffffffffffffffffffffffffffffffffffffff168273ffffffffffffffffffffffffffffffffffffffff161415610b85576040517f08c379a0000000000000000000000000000000000000000000000000000000008152600401610b7c90613815565b60405180910390fd5b6301e1338063ffffffff1642610b9b9190613955565b6002819055506000610bc582604051806060016040528060218152602001613d7060219139611e5c565b90506064600260ff16600054610bdb9190613a89565b610be59190613a27565b816bffffffffffffffffffffffff161115610c35576040517f08c379a0000000000000000000000000000000000000000000000000000000008152600401610c2c906137f5565b60405180910390fd5b610c72816bffffffffffffffffffffffff16600054610c549190613955565b604051806060016040528060268152602001613ee960269139611e5c565b6bffffffffffffffffffffffff16600081905550610d00600460008573ffffffffffffffffffffffffffffffffffffffff1673ffffffffffffffffffffffffffffffffffffffff16815260200190815260200160002060009054906101000a90046bffffffffffffffffffffffff1682604051806060016040528060248152602001613e4960249139612315565b600460008573ffffffffffffffffffffffffffffffffffffffff1673ffffffffffffffffffffffffffffffffffffffff16815260200190815260200160002060006101000a8154816bffffffffffffffffffffffff02191690836bffffffffffffffffffffffff1602179055508273ffffffffffffffffffffffffffffffffffffffff16600073ffffffffffffffffffffffffffffffffffffffff167fddf252ad1be2c89b69c2b068fc378daa952ba7f163c4a11628f55a4df523b3ef83604051610dcb91906138cf565b60405180910390a3610e3e6000600560008673ffffffffffffffffffffffffffffffffffffffff1673ffffffffffffffffffffffffffffffffffffffff16815260200190815260200160002060009054906101000a900473ffffffffffffffffffffffffffffffffffffffff1683612394565b505050565b60056020528060005260406000206000915054906101000a900473ffffffffffffffffffffffffffffffffffffffff1681565b6301e1338081565b610e8833826126a1565b50565b60076020528060005260406000206000915054906101000a900463ffffffff1681565b6000600460008373ffffffffffffffffffffffffffffffffffffffff1673ffffffffffffffffffffffffffffffffffffffff16815260200190815260200160002060009054906101000a90046bffffffffffffffffffffffff166bffffffffffffffffffffffff169050919050565b600281565b6000438210610f66576040517f08c379a0000000000000000000000000000000000000000000000000000000008152600401610f5d90613695565b60405180910390fd5b6000600760008573ffffffffffffffffffffffffffffffffffffffff1673ffffffffffffffffffffffffffffffffffffffff16815260200190815260200160002060009054906101000a900463ffffffff16905060008163ffffffff161415610fd3576000915050611357565b82600660008673ffffffffffffffffffffffffffffffffffffffff1673ffffffffffffffffffffffffffffffffffffffff16815260200190815260200160002060006001846110229190613ae3565b63ffffffff1663ffffffff16815260200190815260200160002060000160009054906101000a900463ffffffff1663ffffffff16116110e757600660008573ffffffffffffffffffffffffffffffffffffffff1673ffffffffffffffffffffffffffffffffffffffff16815260200190815260200160002060006001836110a99190613ae3565b63ffffffff1663ffffffff16815260200190815260200160002060000160049054906101000a90046bffffffffffffffffffffffff16915050611357565b82600660008673ffffffffffffffffffffffffffffffffffffffff1673ffffffffffffffffffffffffffffffffffffffff16815260200190815260200160002060008063ffffffff16815260200190815260200160002060000160009054906101000a900463ffffffff1663ffffffff161115611168576000915050611357565b6000806001836111789190613ae3565b90505b8163ffffffff168163ffffffff1611156112d95760006002838361119f9190613ae3565b6111a99190613a58565b826111b49190613ae3565b90506000600660008973ffffffffffffffffffffffffffffffffffffffff1673ffffffffffffffffffffffffffffffffffffffff16815260200190815260200160002060008363ffffffff1663ffffffff1681526020019081526020016000206040518060400160405290816000820160009054906101000a900463ffffffff1663ffffffff1663ffffffff1681526020016000820160049054906101000a90046bffffffffffffffffffffffff166bffffffffffffffffffffffff166bffffffffffffffffffffffff1681525050905086816000015163ffffffff1614156112a857806020015195505050505050611357565b86816000015163ffffffff1610156112c2578193506112d2565b6001826112cf9190613ae3565b92505b505061117b565b600660008773ffffffffffffffffffffffffffffffffffffffff1673ffffffffffffffffffffffffffffffffffffffff16815260200190815260200160002060008363ffffffff1663ffffffff16815260200190815260200160002060000160049054906101000a90046bffffffffffffffffffffffff1693505050505b92915050565b60086020528060005260406000206000915090505481565b6040518060400160405280600381526020017f544e44000000000000000000000000000000000000000000000000000000000081525081565b6000806113d383604051806060016040528060258152602001613dcd60259139611e5c565b90506113e0338583611f34565b600191505092915050565b600080600760008473ffffffffffffffffffffffffffffffffffffffff1673ffffffffffffffffffffffffffffffffffffffff16815260200190815260200160002060009054906101000a900463ffffffff16905060008163ffffffff16116114555760006114da565b600660008473ffffffffffffffffffffffffffffffffffffffff1673ffffffffffffffffffffffffffffffffffffffff16815260200190815260200160002060006001836114a39190613ae3565b63ffffffff1663ffffffff16815260200190815260200160002060000160049054906101000a90046bffffffffffffffffffffffff165b915050919050565b60007f8cad95687ba82c2ce50e74f7b754645e5117c3a5bec8151c0726d5857980a8666040518060400160405280600581526020017f54756e65640000000000000000000000000000000000000000000000000000008152508051906020012061154a612861565b3060405160200161155e94939291906135e9565b60405160208183030381529060405280519060200120905060007fe48329057bfd03d55e49b547132e39cffd9c1820ad7b9d4c5307691425d15adf8888886040516020016115af94939291906135a4565b604051602081830303815290604052805190602001209050600082826040516020016115dc929190613492565b604051602081830303815290604052805190602001209050600060018288888860405160008152602001604052604051611619949392919061362e565b6020604051602081039080840390855afa15801561163b573d6000803e3d6000fd5b505050602060405103519050600073ffffffffffffffffffffffffffffffffffffffff168173ffffffffffffffffffffffffffffffffffffffff1614156116b7576040517f08c379a00000000000000000000000000000000000000000000000000000000081526004016116ae906136b5565b60405180910390fd5b600860008273ffffffffffffffffffffffffffffffffffffffff1673ffffffffffffffffffffffffffffffffffffffff168152602001908152602001600020600081548092919061170790613c17565b91905055891461174c576040517f08c379a000000000000000000000000000000000000000000000000000000000815260040161174390613775565b60405180910390fd5b8742111561178f576040517f08c379a0000000000000000000000000000000000000000000000000000000008152600401611786906137d5565b60405180910390fd5b611799818b6126a1565b50505050505050505050565b60007fffffffffffffffffffffffffffffffffffffffffffffffffffffffffffffffff8614156117e3576bffffffffffffffffffffffff9050611808565b61180586604051806060016040528060238152602001613d4d60239139611e5c565b90505b60007f8cad95687ba82c2ce50e74f7b754645e5117c3a5bec8151c0726d5857980a8666040518060400160405280600581526020017f54756e656400000000000000000000000000000000000000000000000000000081525080519060200120611870612861565b3060405160200161188494939291906135e9565b60405160208183030381529060405280519060200120905060007f6e71edae12b1b97f4d1f60370fef10105fa2faae0126114a169c64845d6126c98a8a8a600860008f73ffffffffffffffffffffffffffffffffffffffff1673ffffffffffffffffffffffffffffffffffffffff168152602001908152602001600020600081548092919061191290613c17565b919050558b60405160200161192c96959493929190613543565b60405160208183030381529060405280519060200120905060008282604051602001611959929190613492565b604051602081830303815290604052805190602001209050600060018289898960405160008152602001604052604051611996949392919061362e565b6020604051602081039080840390855afa1580156119b8573d6000803e3d6000fd5b505050602060405103519050600073ffffffffffffffffffffffffffffffffffffffff168173ffffffffffffffffffffffffffffffffffffffff161415611a34576040517f08c379a0000000000000000000000000000000000000000000000000000000008152600401611a2b90613835565b60405180910390fd5b8b73ffffffffffffffffffffffffffffffffffffffff168173ffffffffffffffffffffffffffffffffffffffff1614611aa2576040517f08c379a0000000000000000000000000000000000000000000000000000000008152600401611a99906136d5565b60405180910390fd5b88421115611ae5576040517f08c379a0000000000000000000000000000000000000000000000000000000008152600401611adc90613755565b60405180910390fd5b84600360008e73ffffffffffffffffffffffffffffffffffffffff1673ffffffffffffffffffffffffffffffffffffffff16815260200190815260200160002060008d73ffffffffffffffffffffffffffffffffffffffff1673ffffffffffffffffffffffffffffffffffffffff16815260200190815260200160002060006101000a8154816bffffffffffffffffffffffff02191690836bffffffffffffffffffffffff1602179055508a73ffffffffffffffffffffffffffffffffffffffff168c73ffffffffffffffffffffffffffffffffffffffff167f8c5be1e5ebec7d5bd14f71427d1e84f3dd0314c0f7b2291e5b200ac8c7c3b92587604051611bed91906138cf565b60405180910390a3505050505050505050505050565b6000600360008473ffffffffffffffffffffffffffffffffffffffff1673ffffffffffffffffffffffffffffffffffffffff16815260200190815260200160002060008373ffffffffffffffffffffffffffffffffffffffff1673ffffffffffffffffffffffffffffffffffffffff16815260200190815260200160002060009054906101000a90046bffffffffffffffffffffffff166bffffffffffffffffffffffff16905092915050565b7fe48329057bfd03d55e49b547132e39cffd9c1820ad7b9d4c5307691425d15adf81565b6006602052816000526040600020602052806000526040600020600091509150508060000160009054906101000a900463ffffffff16908060000160049054906101000a90046bffffffffffffffffffffffff16905082565b600160009054906101000a900473ffffffffffffffffffffffffffffffffffffffff1673ffffffffffffffffffffffffffffffffffffffff163373ffffffffffffffffffffffffffffffffffffffff1614611dbd576040517f08c379a0000000000000000000000000000000000000000000000000000000008152600401611db4906136f5565b60405180910390fd5b7f3b0007eb941cf645526cbb3a4fdaecda9d28ce4843167d9263b536a1f1edc0f6600160009054906101000a900473ffffffffffffffffffffffffffffffffffffffff1682604051611e109291906134e4565b60405180910390a180600160006101000a81548173ffffffffffffffffffffffffffffffffffffffff021916908373ffffffffffffffffffffffffffffffffffffffff16021790555050565b60006c0100000000000000000000000083108290611eb0576040517f08c379a0000000000000000000000000000000000000000000000000000000008152600401611ea79190613673565b60405180910390fd5b5082905092915050565b6000836bffffffffffffffffffffffff16836bffffffffffffffffffffffff1611158290611f1e576040517f08c379a0000000000000000000000000000000000000000000000000000000008152600401611f159190613673565b60405180910390fd5b508284611f2b9190613b17565b90509392505050565b600073ffffffffffffffffffffffffffffffffffffffff168373ffffffffffffffffffffffffffffffffffffffff161415611fa4576040517f08c379a0000000000000000000000000000000000000000000000000000000008152600401611f9b90613715565b60405180910390fd5b600073ffffffffffffffffffffffffffffffffffffffff168273ffffffffffffffffffffffffffffffffffffffff161415612014576040517f08c379a000000000000000000000000000000000000000000000000000000000815260040161200b90613735565b60405180910390fd5b61208e600460008573ffffffffffffffffffffffffffffffffffffffff1673ffffffffffffffffffffffffffffffffffffffff16815260200190815260200160002060009054906101000a90046bffffffffffffffffffffffff1682604051806060016040528060358152602001613f0f60359139611eba565b600460008573ffffffffffffffffffffffffffffffffffffffff1673ffffffffffffffffffffffffffffffffffffffff16815260200190815260200160002060006101000a8154816bffffffffffffffffffffffff02191690836bffffffffffffffffffffffff160217905550612175600460008473ffffffffffffffffffffffffffffffffffffffff1673ffffffffffffffffffffffffffffffffffffffff16815260200190815260200160002060009054906101000a90046bffffffffffffffffffffffff16826040518060600160405280602f8152602001613eba602f9139612315565b600460008473ffffffffffffffffffffffffffffffffffffffff1673ffffffffffffffffffffffffffffffffffffffff16815260200190815260200160002060006101000a8154816bffffffffffffffffffffffff02191690836bffffffffffffffffffffffff1602179055508173ffffffffffffffffffffffffffffffffffffffff168373ffffffffffffffffffffffffffffffffffffffff167fddf252ad1be2c89b69c2b068fc378daa952ba7f163c4a11628f55a4df523b3ef8360405161223f91906138cf565b60405180910390a3612310600560008573ffffffffffffffffffffffffffffffffffffffff1673ffffffffffffffffffffffffffffffffffffffff16815260200190815260200160002060009054906101000a900473ffffffffffffffffffffffffffffffffffffffff16600560008573ffffffffffffffffffffffffffffffffffffffff1673ffffffffffffffffffffffffffffffffffffffff16815260200190815260200160002060009054906101000a900473ffffffffffffffffffffffffffffffffffffffff1683612394565b505050565b600080838561232491906139e5565b9050846bffffffffffffffffffffffff16816bffffffffffffffffffffffff1610158390612388576040517f08c379a000000000000000000000000000000000000000000000000000000000815260040161237f9190613673565b60405180910390fd5b50809150509392505050565b8173ffffffffffffffffffffffffffffffffffffffff168373ffffffffffffffffffffffffffffffffffffffff16141580156123de57506000816bffffffffffffffffffffffff16115b1561269c57600073ffffffffffffffffffffffffffffffffffffffff168373ffffffffffffffffffffffffffffffffffffffff161461253f576000600760008573ffffffffffffffffffffffffffffffffffffffff1673ffffffffffffffffffffffffffffffffffffffff16815260200190815260200160002060009054906101000a900463ffffffff1690506000808263ffffffff1611612481576000612506565b600660008673ffffffffffffffffffffffffffffffffffffffff1673ffffffffffffffffffffffffffffffffffffffff16815260200190815260200160002060006001846124cf9190613ae3565b63ffffffff1663ffffffff16815260200190815260200160002060000160049054906101000a90046bffffffffffffffffffffffff165b9050600061252d8285604051806060016040528060278152602001613e9360279139611eba565b905061253b8684848461286e565b5050505b600073ffffffffffffffffffffffffffffffffffffffff168273ffffffffffffffffffffffffffffffffffffffff161461269b576000600760008473ffffffffffffffffffffffffffffffffffffffff1673ffffffffffffffffffffffffffffffffffffffff16815260200190815260200160002060009054906101000a900463ffffffff1690506000808263ffffffff16116125dd576000612662565b600660008573ffffffffffffffffffffffffffffffffffffffff1673ffffffffffffffffffffffffffffffffffffffff168152602001908152602001600020600060018461262b9190613ae3565b63ffffffff1663ffffffff16815260200190815260200160002060000160049054906101000a90046bffffffffffffffffffffffff165b905060006126898285604051806060016040528060268152602001613e6d60269139612315565b90506126978584848461286e565b5050505b5b505050565b6000600560008473ffffffffffffffffffffffffffffffffffffffff1673ffffffffffffffffffffffffffffffffffffffff16815260200190815260200160002060009054906101000a900473ffffffffffffffffffffffffffffffffffffffff1690506000600460008573ffffffffffffffffffffffffffffffffffffffff1673ffffffffffffffffffffffffffffffffffffffff16815260200190815260200160002060009054906101000a90046bffffffffffffffffffffffff16905082600560008673ffffffffffffffffffffffffffffffffffffffff1673ffffffffffffffffffffffffffffffffffffffff16815260200190815260200160002060006101000a81548173ffffffffffffffffffffffffffffffffffffffff021916908373ffffffffffffffffffffffffffffffffffffffff1602179055508273ffffffffffffffffffffffffffffffffffffffff168273ffffffffffffffffffffffffffffffffffffffff168573ffffffffffffffffffffffffffffffffffffffff167f3134e8a2e6d97e929a7e54011ea5485d7d196dd5f0ba4d4ef95803e8e3fc257f60405160405180910390a461285b828483612394565b50505050565b6000804690508091505090565b600061289243604051806060016040528060338152602001613e1660339139612b7c565b905060008463ffffffff1611801561293057508063ffffffff16600660008773ffffffffffffffffffffffffffffffffffffffff1673ffffffffffffffffffffffffffffffffffffffff16815260200190815260200160002060006001876128fa9190613ae3565b63ffffffff1663ffffffff16815260200190815260200160002060000160009054906101000a900463ffffffff1663ffffffff16145b156129d45781600660008773ffffffffffffffffffffffffffffffffffffffff1673ffffffffffffffffffffffffffffffffffffffff16815260200190815260200160002060006001876129849190613ae3565b63ffffffff1663ffffffff16815260200190815260200160002060000160046101000a8154816bffffffffffffffffffffffff02191690836bffffffffffffffffffffffff160217905550612b25565b60405180604001604052808263ffffffff168152602001836bffffffffffffffffffffffff16815250600660008773ffffffffffffffffffffffffffffffffffffffff1673ffffffffffffffffffffffffffffffffffffffff16815260200190815260200160002060008663ffffffff1663ffffffff16815260200190815260200160002060008201518160000160006101000a81548163ffffffff021916908363ffffffff16021790555060208201518160000160046101000a8154816bffffffffffffffffffffffff02191690836bffffffffffffffffffffffff160217905550905050600184612ac791906139ab565b600760008773ffffffffffffffffffffffffffffffffffffffff1673ffffffffffffffffffffffffffffffffffffffff16815260200190815260200160002060006101000a81548163ffffffff021916908363ffffffff1602179055505b8473ffffffffffffffffffffffffffffffffffffffff167fdec2bacdd2f05b59de34da9b523dff8be42e5e38e818c82fdb0bae774387a7248484604051612b6d929190613905565b60405180910390a25050505050565b600064010000000083108290612bc8576040517f08c379a0000000000000000000000000000000000000000000000000000000008152600401612bbf9190613673565b60405180910390fd5b5082905092915050565b600081359050612be181613cd9565b92915050565b600081359050612bf681613cf0565b92915050565b600081359050612c0b81613d07565b92915050565b600081359050612c2081613d1e565b92915050565b600081359050612c3581613d35565b92915050565b600060208284031215612c4d57600080fd5b6000612c5b84828501612bd2565b91505092915050565b60008060408385031215612c7757600080fd5b6000612c8585828601612bd2565b9250506020612c9685828601612bd2565b9150509250929050565b600080600060608486031215612cb557600080fd5b6000612cc386828701612bd2565b9350506020612cd486828701612bd2565b9250506040612ce586828701612bfc565b9150509250925092565b600080600080600080600060e0888a031215612d0a57600080fd5b6000612d188a828b01612bd2565b9750506020612d298a828b01612bd2565b9650506040612d3a8a828b01612bfc565b9550506060612d4b8a828b01612bfc565b9450506080612d5c8a828b01612c26565b93505060a0612d6d8a828b01612be7565b92505060c0612d7e8a828b01612be7565b91505092959891949750929550565b60008060408385031215612da057600080fd5b6000612dae85828601612bd2565b9250506020612dbf85828601612bfc565b9150509250929050565b60008060008060008060c08789031215612de257600080fd5b6000612df089828a01612bd2565b9650506020612e0189828a01612bfc565b9550506040612e1289828a01612bfc565b9450506060612e2389828a01612c26565b9350506080612e3489828a01612be7565b92505060a0612e4589828a01612be7565b9150509295509295509295565b60008060408385031215612e6557600080fd5b6000612e7385828601612bd2565b9250506020612e8485828601612c11565b9150509250929050565b612e9781613b4b565b82525050565b612ea681613b5d565b82525050565b612eb581613b69565b82525050565b612ecc612ec782613b69565b613c60565b82525050565b6000612edd8261392e565b612ee78185613939565b9350612ef7818560208601613be4565b612f0081613cc8565b840191505092915050565b6000612f18602683613939565b91507f546e643a3a6765745072696f72566f7465733a206e6f7420796574206465746560008301527f726d696e656400000000000000000000000000000000000000000000000000006020830152604082019050919050565b6000612f7e602583613939565b91507f546e643a3a64656c656761746542795369673a20696e76616c6964207369676e60008301527f61747572650000000000000000000000000000000000000000000000000000006020830152604082019050919050565b6000612fe460028361394a565b91507f19010000000000000000000000000000000000000000000000000000000000006000830152600282019050919050565b6000613024601983613939565b91507f546e643a3a7065726d69743a20756e617574686f72697a6564000000000000006000830152602082019050919050565b6000613064603d83613939565b91507f546e643a3a7365744d696e7465723a206f6e6c7920746865206d696e7465722060008301527f63616e206368616e676520746865206d696e74657220616464726573730000006020830152604082019050919050565b60006130ca603b83613939565b91507f546e643a3a5f7472616e73666572546f6b656e733a2063616e6e6f742074726160008301527f6e736665722066726f6d20746865207a65726f206164647265737300000000006020830152604082019050919050565b6000613130603983613939565b91507f546e643a3a5f7472616e73666572546f6b656e733a2063616e6e6f742074726160008301527f6e7366657220746f20746865207a65726f2061646472657373000000000000006020830152604082019050919050565b6000613196601e83613939565b91507f546e643a3a7065726d69743a207369676e6174757265206578706972656400006000830152602082019050919050565b60006131d6602183613939565b91507f546e643a3a64656c656761746542795369673a20696e76616c6964206e6f6e6360008301527f65000000000000000000000000000000000000000000000000000000000000006020830152604082019050919050565b600061323c602383613939565b91507f546e643a3a6d696e743a206f6e6c7920746865206d696e7465722063616e206d60008301527f696e7400000000000000000000000000000000000000000000000000000000006020830152604082019050919050565b60006132a2602283613939565b91507f546e643a3a6d696e743a206d696e74696e67206e6f7420616c6c6f776564207960008301527f65740000000000000000000000000000000000000000000000000000000000006020830152604082019050919050565b6000613308602583613939565b91507f546e643a3a64656c656761746542795369673a207369676e617475726520657860008301527f70697265640000000000000000000000000000000000000000000000000000006020830152604082019050919050565b600061336e601c83613939565b91507f546e643a3a6d696e743a206578636565646564206d696e7420636170000000006000830152602082019050919050565b60006133ae602e83613939565b91507f546e643a3a6d696e743a2063616e6e6f74207472616e7366657220746f20746860008301527f65207a65726f20616464726573730000000000000000000000000000000000006020830152604082019050919050565b6000613414601e83613939565b91507f546e643a3a7065726d69743a20696e76616c6964207369676e617475726500006000830152602082019050919050565b61345081613b93565b82525050565b61345f81613b9d565b82525050565b61346e81613bad565b82525050565b61347d81613bd2565b82525050565b61348c81613bba565b82525050565b600061349d82612fd7565b91506134a98285612ebb565b6020820191506134b98284612ebb565b6020820191508190509392505050565b60006020820190506134de6000830184612e8e565b92915050565b60006040820190506134f96000830185612e8e565b6135066020830184612e8e565b9392505050565b60006020820190506135226000830184612e9d565b92915050565b600060208201905061353d6000830184612eac565b92915050565b600060c0820190506135586000830189612eac565b6135656020830188612e8e565b6135726040830187612e8e565b61357f6060830186613447565b61358c6080830185613447565b61359960a0830184613447565b979650505050505050565b60006080820190506135b96000830187612eac565b6135c66020830186612e8e565b6135d36040830185613447565b6135e06060830184613447565b95945050505050565b60006080820190506135fe6000830187612eac565b61360b6020830186612eac565b6136186040830185613447565b6136256060830184612e8e565b95945050505050565b60006080820190506136436000830187612eac565b6136506020830186613465565b61365d6040830185612eac565b61366a6060830184612eac565b95945050505050565b6000602082019050818103600083015261368d8184612ed2565b905092915050565b600060208201905081810360008301526136ae81612f0b565b9050919050565b600060208201905081810360008301526136ce81612f71565b9050919050565b600060208201905081810360008301526136ee81613017565b9050919050565b6000602082019050818103600083015261370e81613057565b9050919050565b6000602082019050818103600083015261372e816130bd565b9050919050565b6000602082019050818103600083015261374e81613123565b9050919050565b6000602082019050818103600083015261376e81613189565b9050919050565b6000602082019050818103600083015261378e816131c9565b9050919050565b600060208201905081810360008301526137ae8161322f565b9050919050565b600060208201905081810360008301526137ce81613295565b9050919050565b600060208201905081810360008301526137ee816132fb565b9050919050565b6000602082019050818103600083015261380e81613361565b9050919050565b6000602082019050818103600083015261382e816133a1565b9050919050565b6000602082019050818103600083015261384e81613407565b9050919050565b600060208201905061386a6000830184613447565b92915050565b60006020820190506138856000830184613456565b92915050565b60006040820190506138a06000830185613456565b6138ad6020830184613483565b9392505050565b60006020820190506138c96000830184613465565b92915050565b60006020820190506138e46000830184613474565b92915050565b60006020820190506138ff6000830184613483565b92915050565b600060408201905061391a6000830185613474565b6139276020830184613474565b9392505050565b600081519050919050565b600082825260208201905092915050565b600081905092915050565b600061396082613b93565b915061396b83613b93565b9250827fffffffffffffffffffffffffffffffffffffffffffffffffffffffffffffffff038211156139a05761399f613c6a565b5b828201905092915050565b60006139b682613b9d565b91506139c183613b9d565b92508263ffffffff038211156139da576139d9613c6a565b5b828201905092915050565b60006139f082613bba565b91506139fb83613bba565b9250826bffffffffffffffffffffffff03821115613a1c57613a1b613c6a565b5b828201905092915050565b6000613a3282613b93565b9150613a3d83613b93565b925082613a4d57613a4c613c99565b5b828204905092915050565b6000613a6382613b9d565b9150613a6e83613b9d565b925082613a7e57613a7d613c99565b5b828204905092915050565b6000613a9482613b93565b9150613a9f83613b93565b9250817fffffffffffffffffffffffffffffffffffffffffffffffffffffffffffffffff0483118215151615613ad857613ad7613c6a565b5b828202905092915050565b6000613aee82613b9d565b9150613af983613b9d565b925082821015613b0c57613b0b613c6a565b5b828203905092915050565b6000613b2282613bba565b9150613b2d83613bba565b925082821015613b4057613b3f613c6a565b5b828203905092915050565b6000613b5682613b73565b9050919050565b60008115159050919050565b6000819050919050565b600073ffffffffffffffffffffffffffffffffffffffff82169050919050565b6000819050919050565b600063ffffffff82169050919050565b600060ff82169050919050565b60006bffffffffffffffffffffffff82169050919050565b6000613bdd82613bba565b9050919050565b60005b83811015613c02578082015181840152602081019050613be7565b83811115613c11576000848401525b50505050565b6000613c2282613b93565b91507fffffffffffffffffffffffffffffffffffffffffffffffffffffffffffffffff821415613c5557613c54613c6a565b5b600182019050919050565b6000819050919050565b7f4e487b7100000000000000000000000000000000000000000000000000000000600052601160045260246000fd5b7f4e487b7100000000000000000000000000000000000000000000000000000000600052601260045260246000fd5b6000601f19601f8301169050919050565b613ce281613b4b565b8114613ced57600080fd5b50565b613cf981613b69565b8114613d0457600080fd5b50565b613d1081613b93565b8114613d1b57600080fd5b50565b613d2781613b9d565b8114613d3257600080fd5b50565b613d3e81613bad565b8114613d4957600080fd5b5056fe546e643a3a7065726d69743a20616d6f756e7420657863656564732039362062697473546e643a3a6d696e743a20616d6f756e7420657863656564732039362062697473546e643a3a7472616e7366657246726f6d3a207472616e7366657220616d6f756e742065786365656473207370656e64657220616c6c6f77616e6365546e643a3a7472616e736665723a20616d6f756e7420657863656564732039362062697473546e643a3a617070726f76653a20616d6f756e7420657863656564732039362062697473546e643a3a5f7772697465436865636b706f696e743a20626c6f636b206e756d62657220657863656564732033322062697473546e643a3a6d696e743a207472616e7366657220616d6f756e74206f766572666c6f7773546e643a3a5f6d6f7665566f7465733a20766f746520616d6f756e74206f766572666c6f7773546e643a3a5f6d6f7665566f7465733a20766f746520616d6f756e7420756e646572666c6f7773546e643a3a5f7472616e73666572546f6b656e733a207472616e7366657220616d6f756e74206f766572666c6f7773546e643a3a6d696e743a20746f74616c537570706c7920657863656564732039362062697473546e643a3a5f7472616e73666572546f6b656e733a207472616e7366657220616d6f756e7420657863656564732062616c616e6365a26469706673582212201224430d109d2665e2715bba1a80512a0b9a6337cfc427af81047e7957d74ecd64736f6c63430008000033",
  "linkReferences": {},
  "deployedLinkReferences": {}
}