{
  "_format": "hh-sol-artifact-1",
  "contractName": "MerkleDistributor",
  "sourceName": "contracts/MerkleDistributor.sol",
  "abi": [
    {
      "inputs": [
        {
          "internalType": "address",
          "name": "token_",
          "type": "address"
        },
        {
          "internalType": "bytes32",
          "name": "merkleRoot_",
          "type": "bytes32"
        }
      ],
      "stateMutability": "nonpayable",
      "type": "constructor"
    },
    {
      "anonymous": false,
      "inputs": [
        {
          "indexed": false,
          "internalType": "uint256",
          "name": "index",
          "type": "uint256"
        },
        {
          "indexed": false,
          "internalType": "address",
          "name": "account",
          "type": "address"
        },
        {
          "indexed": false,
          "internalType": "uint256",
          "name": "amount",
          "type": "uint256"
        }
      ],
      "name": "Claimed",
      "type": "event"
    },
    {
      "inputs": [
        {
          "internalType": "uint256",
          "name": "index",
          "type": "uint256"
        },
        {
          "internalType": "address",
          "name": "account",
          "type": "address"
        },
        {
          "internalType": "uint256",
          "name": "amount",
          "type": "uint256"
        },
        {
          "internalType": "bytes32[]",
          "name": "merkleProof",
          "type": "bytes32[]"
        }
      ],
      "name": "claim",
      "outputs": [],
      "stateMutability": "nonpayable",
      "type": "function"
    },
    {
      "inputs": [
        {
          "internalType": "uint256",
          "name": "index",
          "type": "uint256"
        }
      ],
      "name": "isClaimed",
      "outputs": [
        {
          "internalType": "bool",
          "name": "",
          "type": "bool"
        }
      ],
      "stateMutability": "view",
      "type": "function"
    },
    {
      "inputs": [],
      "name": "merkleRoot",
      "outputs": [
        {
          "internalType": "bytes32",
          "name": "",
          "type": "bytes32"
        }
      ],
      "stateMutability": "view",
      "type": "function"
    },
    {
      "inputs": [],
      "name": "token",
      "outputs": [
        {
          "internalType": "address",
          "name": "",
          "type": "address"
        }
      ],
      "stateMutability": "view",
      "type": "function"
    }
  ],
  "bytecode": "0x60c06040523480156200001157600080fd5b5060405162000d6338038062000d638339818101604052810190620000379190620000ac565b8173ffffffffffffffffffffffffffffffffffffffff1660808173ffffffffffffffffffffffffffffffffffffffff1660601b815250508060a0818152505050506200015f565b6000815190506200008f816200012b565b92915050565b600081519050620000a68162000145565b92915050565b60008060408385031215620000c057600080fd5b6000620000d0858286016200007e565b9250506020620000e38582860162000095565b9150509250929050565b6000620000fa826200010b565b9050919050565b6000819050919050565b600073ffffffffffffffffffffffffffffffffffffffff82169050919050565b6200013681620000ed565b81146200014257600080fd5b50565b620001508162000101565b81146200015c57600080fd5b50565b60805160601c60a051610bcd6200019660003960008181610198015261033601526000818161020701526103af0152610bcd6000f3fe608060405234801561001057600080fd5b506004361061004c5760003560e01c80632e7ba6ef146100515780632eb4a7ab1461006d5780639e34070f1461008b578063fc0c546a146100bb575b600080fd5b61006b600480360381019061006691906105f4565b6100d9565b005b610075610334565b60405161008291906108ef565b60405180910390f35b6100a560048036038101906100a091906105cb565b610358565b6040516100b291906108d4565b60405180910390f35b6100c36103ad565b6040516100d09190610890565b60405180910390f35b6100e285610358565b15610122576040517f08c379a00000000000000000000000000000000000000000000000000000000081526004016101199061090a565b60405180910390fd5b600085858560405160200161013993929190610853565b6040516020818303038152906040528051906020012090506101bd838380806020026020016040519081016040528093929190818152602001838360200280828437600081840152601f19601f820116905080830192505050505050507f0000000000000000000000000000000000000000000000000000000000000000836103d1565b6101fc576040517f08c379a00000000000000000000000000000000000000000000000000000000081526004016101f39061092a565b60405180910390fd5b610205866103e8565b7f000000000000000000000000000000000000000000000000000000000000000073ffffffffffffffffffffffffffffffffffffffff1663a9059cbb86866040518363ffffffff1660e01b81526004016102609291906108ab565b602060405180830381600087803b15801561027a57600080fd5b505af115801561028e573d6000803e3d6000fd5b505050506040513d601f19601f820116820180604052508101906102b291906105a2565b6102f1576040517f08c379a00000000000000000000000000000000000000000000000000000000081526004016102e89061094a565b60405180910390fd5b7f4ec90e965519d92681267467f775ada5bd214aa92c0dc93d90a5e880ce9ed0268686866040516103249392919061096a565b60405180910390a1505050505050565b7f000000000000000000000000000000000000000000000000000000000000000081565b6000806101008361036991906109b2565b905060006101008461037b9190610ab6565b905060008060008481526020019081526020016000205490506000826001901b90508081831614945050505050919050565b7f000000000000000000000000000000000000000000000000000000000000000081565b6000826103de8584610440565b1490509392505050565b6000610100826103f891906109b2565b905060006101008361040a9190610ab6565b9050806001901b600080848152602001908152602001600020541760008084815260200190815260200160002081905550505050565b60008082905060005b845181101561050e57600085828151811061048d577f4e487b7100000000000000000000000000000000000000000000000000000000600052603260045260246000fd5b602002602001015190508083116104ce5782816040516020016104b1929190610827565b6040516020818303038152906040528051906020012092506104fa565b80836040516020016104e1929190610827565b6040516020818303038152906040528051906020012092505b50808061050690610a35565b915050610449565b508091505092915050565b60008135905061052881610b52565b92915050565b60008083601f84011261054057600080fd5b8235905067ffffffffffffffff81111561055957600080fd5b60208301915083602082028301111561057157600080fd5b9250929050565b60008151905061058781610b69565b92915050565b60008135905061059c81610b80565b92915050565b6000602082840312156105b457600080fd5b60006105c284828501610578565b91505092915050565b6000602082840312156105dd57600080fd5b60006105eb8482850161058d565b91505092915050565b60008060008060006080868803121561060c57600080fd5b600061061a8882890161058d565b955050602061062b88828901610519565b945050604061063c8882890161058d565b935050606086013567ffffffffffffffff81111561065957600080fd5b6106658882890161052e565b92509250509295509295909350565b61067d816109e3565b82525050565b61069461068f826109e3565b610a7e565b82525050565b6106a3816109f5565b82525050565b6106b281610a01565b82525050565b6106c96106c482610a01565b610a90565b82525050565b60006106dc6028836109a1565b91507f4d65726b6c654469737472696275746f723a2044726f7020616c72656164792060008301527f636c61696d65642e0000000000000000000000000000000000000000000000006020830152604082019050919050565b60006107426021836109a1565b91507f4d65726b6c654469737472696275746f723a20496e76616c69642070726f6f6660008301527f2e000000000000000000000000000000000000000000000000000000000000006020830152604082019050919050565b60006107a86023836109a1565b91507f4d65726b6c654469737472696275746f723a205472616e73666572206661696c60008301527f65642e00000000000000000000000000000000000000000000000000000000006020830152604082019050919050565b61080a81610a2b565b82525050565b61082161081c82610a2b565b610aac565b82525050565b600061083382856106b8565b60208201915061084382846106b8565b6020820191508190509392505050565b600061085f8286610810565b60208201915061086f8285610683565b60148201915061087f8284610810565b602082019150819050949350505050565b60006020820190506108a56000830184610674565b92915050565b60006040820190506108c06000830185610674565b6108cd6020830184610801565b9392505050565b60006020820190506108e9600083018461069a565b92915050565b600060208201905061090460008301846106a9565b92915050565b60006020820190508181036000830152610923816106cf565b9050919050565b6000602082019050818103600083015261094381610735565b9050919050565b600060208201905081810360008301526109638161079b565b9050919050565b600060608201905061097f6000830186610801565b61098c6020830185610674565b6109996040830184610801565b949350505050565b600082825260208201905092915050565b60006109bd82610a2b565b91506109c883610a2b565b9250826109d8576109d7610b16565b5b828204905092915050565b60006109ee82610a0b565b9050919050565b60008115159050919050565b6000819050919050565b600073ffffffffffffffffffffffffffffffffffffffff82169050919050565b6000819050919050565b6000610a4082610a2b565b91507fffffffffffffffffffffffffffffffffffffffffffffffffffffffffffffffff821415610a7357610a72610ae7565b5b600182019050919050565b6000610a8982610a9a565b9050919050565b6000819050919050565b6000610aa582610b45565b9050919050565b6000819050919050565b6000610ac182610a2b565b9150610acc83610a2b565b925082610adc57610adb610b16565b5b828206905092915050565b7f4e487b7100000000000000000000000000000000000000000000000000000000600052601160045260246000fd5b7f4e487b7100000000000000000000000000000000000000000000000000000000600052601260045260246000fd5b60008160601b9050919050565b610b5b816109e3565b8114610b6657600080fd5b50565b610b72816109f5565b8114610b7d57600080fd5b50565b610b8981610a2b565b8114610b9457600080fd5b5056fea26469706673582212201c66942999ea7b1ddc77718b1eaebd3ef2992aa82dc732092675ed26446c1fcb64736f6c63430008000033",
  "linkReferences": {},
  "deployedLinkReferences": {}
}